:1000000008308A00002800008C18A9297539E535C8
:10001000EC34A037EC31F53600000A19A925E13C93
:10002000E432F4366510ED37E43A00000C29BD12D5
:10003000EC3AA037E83620000C2AE93665393A1048
:1000400033182032E135E93561008A1A2921E13976
:10005000EC3000008C12E414253675106B106F34F0
:100060006D10801E8C27EC31F536203AE136E136F2
:10007000EC306E32691700018A18A9296F37F53103
:100080007510E737733A653900018C12E414253690
:1000900075106B106F346D008A12E41425367510DC
:1000A0006B106F346D008C18A9297539E535EC3467
:1000B000A037EC31F53600010A19A925E13CE432FC
:1000C000F4366510ED37E43A0000A230840083175F
:1000D0000008031979280130F800F701F70B6E28A2
:1000E000F80B6D284A30F700F70B74287728800B3F
:1000F0006B28080083160317290EF039F7000F301C
:10010000831203130605770486000000061488286E
:10011000061008000608F700060E0F39F800080060
:100120008316061086100611831286100F30831670
:100130000605F0388600831206150000061400003C
:100140008A20780883160317A90083120313061068
:100150000000061400008A20780883160317A80000
:100160008312031306100F3083160605860003174B
:10017000290EF700F030F70577082804F800780812
:10018000A800A81FC6288312031396282618CD2876
:1001900083120313861083160317261CD428831298
:1001A000031386148316031700008312031306112A
:1001B0000000061083160317270EA8000F30A805AD
:1001C0002808A900831203137A208316031727082F
:1001D0000F39A800A900831203137A2008002830E1
:1001E0008316031796000C309700013098000630F4
:1001F0009900831203130610861006110F30831620
:10020000060586000610861006110F300317A2009F
:100210008312031365200130831603179500150818
:10022000033C031C23290330A900831203137A2003
:10023000053083160317A20083120313652083166B
:100240000317950A0F290230A900831203137A209D
:10025000053083160317A20083120313652083164B
:10026000031795011508033C031C46299630150712
:100270008400831700089A00A6011A08A7008312B9
:100280000313902083160317950A32290313831250
:100290008A150A122A2883160317230B502953297B
:1002A0004030A4005429A40101302202A4072408EC
:1002B0008038A500A6012508A7008312031390200B
:1002C0000800831603172108073A83120313031942
:1002D00073290B3A03197C29063A03198C29023A2F
:1002E000031996299F29013083160317A200A30042
:1002F000831203134B21A82983160317A60101308B
:10030000A700831203139020023083160317A20064
:10031000831203136520A829013083160317A20056
:100320000230A300831203134B21A829831603175D
:10033000A6011030A700831203139020A8290130D2
:1003400083160317A6002108A70083120313902029
:1003500008000B08831603179500831203138B13F1
:10036000831603178C170C1400000000951FBD297D
:10037000831203138B178316031783120C087F391C
:100380000319132A8316950083120D08831696000D
:1003900083120F08831697001508A1008312031318
:1003A000612183160317160883128D008316170820
:1003B00083128F0003130B08831603179800831210
:1003C00003138B13831603178C170C140000000003
:1003D000981FEF29831203138B17831603178312B9
:1003E0000C0D0E0D7F390319132A83169500831205
:1003F0000D088316960083120F08831697001508C0
:10040000A1008312031361218316031716088312B8
:100410008D008316170883128F008D0A03198F0A27
:100420000313A929031703130800203083160317A9
:10043000A1009D019E019F01A0011808FA00170864
:10044000F9001608F8001508F7000310771C362A83
:1004500019089D071A0803181A0F9E071B0803188E
:100460001B0F9F071C0803181C0FA007A00C9F0C54
:100470009E0C9D0CFA0CF90CF80CF70CA10B252A1C
:10048000031383128A150A12792883184A2AA9307D
:1004900084008317F701F801F901FA0183160317A5
:1004A000A901AA01AB01AC012808270426042504F0
:1004B00003198A2A2030AD000310A10DA20DA30D4F
:1004C000A40DA90DAA0DAB0DAC0D28082C02031D1F
:1004D000732A27082B02031D732A26082A02031DEC
:1004E000732A25082902031C842A2508A902260844
:1004F000031C260FAA022708031C270FAB0228089B
:10050000031C280FAC020314F70DF80DF90DFA0DBA
:10051000AD0B5C2A29088000840A2A088000840A1E
:100520002B088000840A2C08800083120313080023
:1005300004088316031799003B30A0009A309F00EF
:10054000CA309E009D010A309B00831495308400C0
:1005500083171808A4001708A3001608A20015089E
:10056000A1002008A8001F08A7001E08A6001D085B
:10057000A5008312031345227808F708031DDA2A21
:10058000831603171B08013A031DC92A831203139C
:10059000DA2A19080319DD2A0F391B020319D22A96
:1005A0000318E62A991BE62A191BDD2A2030DE2AC9
:1005B000831203138316031799013030F707770866
:1005C000A1008312031361218316031783102008EF
:1005D000A4001F08A3001E08A2001D08A100A80176
:1005E000A701A6010A30A5008312031345227A0849
:1005F00083160317A00079089F0078089E007708EB
:100600009D009B0BA52A8312031308000B08831679
:1006100003179900831203138B13831603178C1788
:100620000C1400000000991F1A2B831203138B1760
:100630008316031703184F2B83120C087F39831678
:10064000990083120D0883169A0083120F088316EF
:100650009B001908A100831203136121831603175D
:100660001A0883128D0083161B0883128F00031350
:100670000B08831603179C00831203138B13831636
:1006800003178C170C14000000009C1F4C2B8312C6
:1006900003138B1783160317980B4F2B762B83129C
:1006A0000C0D0E0D7F398316990083120D088316E9
:1006B0009A0083120F0883169B001908A100831269
:1006C00003136121831603171A0883128D00831602
:1006D0001B0883128F008D0A03198F0A03108316DB
:1006E000980B732B762B83120313062B83120313A1
:1006F00008001030831603179900F701FA01960CD1
:10070000950C031C892B1708F7070318FA0A180819
:10071000FA07FA0CF70CF90CF80C990B7F2B031362
:1007200083128A150A12BA29F801F901F701FA01B0
:10073000831603171C08031DA02B1B080319BA2BD3
:1007400010309D000310990D9A0DF70DFA0D1C083D
:100750007A02031DAD2B1B087702031CB62B1B0866
:10076000F702031CFA031C08FA020314F80DF90D32
:100770009D0BA22B031383128A150A12E6298316F6
:1007800003171F08F8011E020318C92B1E08F700E3
:10079000D52BF7010830A0009E0DF70D1F0877023A
:1007A0000318F700F80DA00BCC2B831203130800DD
:1007B000203083160317191E30309A001808F700EE
:1007C000981FEA2BF709F70A770898002D309A004E
:1007D0009917191418089E0064309F0083120313A0
:1007E000BF237708831603179800303078079B00E3
:1007F00018089E000A309F0083120313BF23303075
:100800007707831603179D00303078079C001A087D
:10081000F70030301B020319112C9914991B19157C
:10082000252C1A089B0020309A0030301C02031936
:100830001D2C1914991B9914252C031D1914031D23
:10084000252C1B089C0020309B0019192C2C991872
:10085000332C19183A2C412C1A08A10083120313C7
:100860006121831603171B08A10083120313612162
:10087000831603171C08A10083120313612183163A
:1008800003171D08A10083120313612108008316BA
:100890000317A00104089F002010831B2014190EC9
:1008A000F0389B009B07E23E9C00323E9E001908F8
:1008B0000F399C079C079E07E93E9D009D079D07F9
:1008C000180E0F399D079E079D0D9E0D9E099E0DCA
:1008D00018080F399E079B0D07309A000A309E07B3
:1008E0009D03031C6F2C9D079C03031C732C9C070A
:1008F0009B03031C772C9B079A03031C7B2C9A30C9
:100900008400831707301F051F1384079E300402DD
:1009100003191F170008F700031D962C1F1B962CA8
:100920001F1AAC2C9F19962C2030992C9F151F1242
:100930003030F7079901040898001910831B191427
:100940007708A10083120313612183160317180887
:100950008400831319188317840A1F1F862C83129F
:040960000313080075
:1010000003081F398300A701A60183161F149F142C
:101010001F159F1107309C008313FF30850000309F
:101020008600FF308700F3308800831286010811A4
:10103000881183161F1383121F179F1783169F177C
:1010400083121F1483161F109F101F119F118A11E6
:101050008312EF288A15043003178D0000308F00AB
:101060008A110313A9218A15323083160317A200AF
:101070008A118312031365208A150D3003178D0022
:1010800000308F008A110313A9218A15081C162924
:1010900087182B280030F8001F08C73978049F00F4
:1010A0000930F700F70B522855281F151F1956282D
:1010B00083161E088312A0001E08A10083160317C2
:1010C00098019701831203132108831603179600D2
:1010D0008312031320088316031795009C01013027
:1010E0009B0086309A00A03099008A118312031366
:1010F000152A8A157A08B0007908AF007808AE0082
:101100007708AD002008FF3CF7000330FA00210803
:10111000031C210FFA027708B1007A08B20083108D
:10112000300883160317A400831203132F088316B5
:101130000317A300831203132E0883160317A200BC
:10114000831203132D0883160317A100A801A7011A
:1011500083120313320883160317A60083120313A6
:10116000310883160317A5008A1183120313452241
:101170008A157A08A5007908A4007808A3007708E2
:10118000A2000C3083160317A1008A1183120313E7
:1011900061218A15523083160317A1008A11831228
:1011A000031361218A153D3083160317A1008A11AC
:1011B0008312031361218A154130840025088316A8
:1011C000031798008312031324088316031797004C
:1011D0008312031323088316031796008312031345
:1011E00022088316031795008A118312031398228D
:1011F0008A15193003178D0000308F000310053059
:10120000831698008A118312031306238A1503306C
:10121000AD00FA3083160317A2008A11831203135C
:1012200065208A15AD0B09294828C32B881CC32BC0
:101230001C3003178D0000308F008A110313A92181
:101240008A15253003178D0000308F008A11031393
:10125000A9218A1507182D292A2903179001910120
:1012600092019301940195019601970198019901CA
:101270009A019B019C019D019E019F01A001A1017A
:10128000A201A301A401A501A601A701A801A9012A
:10129000AA01AB01AC01AD01AE01AF01B001B101DA
:1012A000B201B301B401B501B601B701B801B9018A
:1012B000BA01BB01BC01BD01BE01BF01C001C1013A
:1012C000C201C301C401C501C601C701C801C901EA
:1012D000CA01CB01CC01CD01CE01CF01D001D1019A
:1012E000D201D301D401D501D601D701D801D9014A
:1012F000DA01DB01DC01DD01DE01DF01E001E101FA
:10130000E201E301E401E501E601E701E801E901A9
:10131000EA01EB01EC01ED01EE01EF010313A8017D
:1013200028082F3C031CBD2AA9010030F8001F0823
:10133000C73978049F000930F700F70B9D29A029D1
:101340001F151F19A12983161E088312A0001E084D
:10135000A1002108831603179600831203132008A7
:101360008316031795009801643097008A11831241
:101370000313792B8A157908AE007808AD00200890
:10138000FF3CF7000330FA002108031C210FFA028A
:101390007708AF007A08B0002E08831603179A006A
:1013A000831203132D088316031799008312031366
:1013B0003008831603179C00831203132F0883162B
:1013C00003179B008A1183120313942B8A15A5011E
:1013D000A4017908A3007808A200A508031DFE292E
:1013E000A408031DFE292308FE3C0318022AFF3A25
:1013F000031DFE292208DC3C0318022AA501A401D2
:10140000A301A2010310280D103E840083172208B7
:101410008000840A2308800028080139031D132A4C
:101420000310280CA900AA012A081D3C031CBB2A92
:10143000AB012B083B3C031CB92A0430AD00FA3049
:1014400083160317A2008A118312031365208A15DD
:10145000AD0B1F2A0C3083160317A1008A118312CB
:10146000031361218A152808831603179800183082
:1014700099008A1183120313D8238A152930831601
:101480000317A1008A118312031361218A154130C9
:101490008400250883160317980083120313240879
:1014A0008316031797008312031323088316031769
:1014B00096008312031322088316031795008A11DE
:1014C0008312031398228A152D3003178D000030E4
:1014D0008F0003140730831698008A1183120313B8
:1014E00006238A150A3083160317A1008A11831276
:1014F000031361218A1529088316031798001830F1
:1015000099008A1183120313D8238A153A3083165F
:101510000317A1008A118312031361218A152A0877
:10152000831603179800183099008A118312031349
:10153000D8238A153A3083160317A1008A11831223
:10154000031361218A152B0883160317980018309E
:1015500099008A1183120313D8238A152030831629
:101560000317A1008A118312031361218A15AB0AA4
:10157000192AAA0A142AA80A9029323003178D00C2
:1015800000308F008A110313A9218A153C300317FC
:101590008D0000308F008A110313A9218A150815C8
:1015A00088150230AD00FA3083160317A2008A11A5
:1015B0008312031365208A15AD0BD32A08118811F5
:1015C0000230AD00FA3083160317A2008A1183128D
:1015D000031365208A15AD0BE22A0818F02ACF2ADA
:1015E000AC0103102C0D103E84008317840A000800
:1015F000AE0084030008AD000C3083160317A10071
:101600008A118312031361218A152C08831603178C
:101610009800183099008A1183120313D8238A1571
:10162000293083160317A1008A1183120313612145
:101630008A15103084002E08831603179900831230
:1016400003132D088316031798008A1183120313BE
:1016500047248A15483003178D0000308F0003148B
:101660000630831698008A118312031306238A1505
:101670000B30AD00653083160317A2008A11831268
:10168000031365208A15AD0B3A2B01302C07AD00F2
:1016900001302C07F7000310F70D7708103E840087
:1016A0008317840A0008AF0084030008AE000A30E4
:1016B00083160317A1008A118312031361218A156F
:1016C0002D08831603179800183099008A11831289
:1016D0000313D8238A15293083160317A1008A1112
:1016E0008312031361218A15103084002F0883169A
:1016F00003179900831203132E088316031798000B
:101700008A118312031347248A154F3003178D0063
:1017100000308F0003140630831698008A1183125C
:10172000031306238A150B30AD00653083160317AB
:10173000A2008A118312031365208A15AD0B952B25
:10174000AC0A2C082E3C0319AC018718A82BF12AEF
:10175000533003178D0000308F008A110313A92125
:101760008A15323083160317A2008A1183120313DD
:1017700065208A155C3003178D0000308F008A11B8
:0A1780000313A9218A15462863000F
:02400E00713F00
:00000001FF
;PIC16F877A
;CRC=5D12  CREATED="01-Oca-19 19:29"
